{
  "_format": "hh3-artifact-1",
  "contractName": "PT",
  "sourceName": "contracts/Splitter/PTYT.sol",
  "abi": [
    {
      "inputs": [
        {
          "internalType": "string",
          "name": "name",
          "type": "string"
        },
        {
          "internalType": "string",
          "name": "symbol",
          "type": "string"
        }
      ],
      "stateMutability": "nonpayable",
      "type": "constructor"
    },
    {
      "inputs": [
        {
          "internalType": "address",
          "name": "spender",
          "type": "address"
        },
        {
          "internalType": "uint256",
          "name": "allowance",
          "type": "uint256"
        },
        {
          "internalType": "uint256",
          "name": "needed",
          "type": "uint256"
        }
      ],
      "name": "ERC20InsufficientAllowance",
      "type": "error"
    },
    {
      "inputs": [
        {
          "internalType": "address",
          "name": "sender",
          "type": "address"
        },
        {
          "internalType": "uint256",
          "name": "balance",
          "type": "uint256"
        },
        {
          "internalType": "uint256",
          "name": "needed",
          "type": "uint256"
        }
      ],
      "name": "ERC20InsufficientBalance",
      "type": "error"
    },
    {
      "inputs": [
        {
          "internalType": "address",
          "name": "approver",
          "type": "address"
        }
      ],
      "name": "ERC20InvalidApprover",
      "type": "error"
    },
    {
      "inputs": [
        {
          "internalType": "address",
          "name": "receiver",
          "type": "address"
        }
      ],
      "name": "ERC20InvalidReceiver",
      "type": "error"
    },
    {
      "inputs": [
        {
          "internalType": "address",
          "name": "sender",
          "type": "address"
        }
      ],
      "name": "ERC20InvalidSender",
      "type": "error"
    },
    {
      "inputs": [
        {
          "internalType": "address",
          "name": "spender",
          "type": "address"
        }
      ],
      "name": "ERC20InvalidSpender",
      "type": "error"
    },
    {
      "inputs": [
        {
          "internalType": "address",
          "name": "owner",
          "type": "address"
        }
      ],
      "name": "OwnableInvalidOwner",
      "type": "error"
    },
    {
      "inputs": [
        {
          "internalType": "address",
          "name": "account",
          "type": "address"
        }
      ],
      "name": "OwnableUnauthorizedAccount",
      "type": "error"
    },
    {
      "anonymous": false,
      "inputs": [
        {
          "indexed": true,
          "internalType": "address",
          "name": "owner",
          "type": "address"
        },
        {
          "indexed": true,
          "internalType": "address",
          "name": "spender",
          "type": "address"
        },
        {
          "indexed": false,
          "internalType": "uint256",
          "name": "value",
          "type": "uint256"
        }
      ],
      "name": "Approval",
      "type": "event"
    },
    {
      "anonymous": false,
      "inputs": [
        {
          "indexed": true,
          "internalType": "address",
          "name": "from",
          "type": "address"
        },
        {
          "indexed": false,
          "internalType": "uint256",
          "name": "amount",
          "type": "uint256"
        }
      ],
      "name": "Burned",
      "type": "event"
    },
    {
      "anonymous": false,
      "inputs": [
        {
          "indexed": true,
          "internalType": "address",
          "name": "to",
          "type": "address"
        },
        {
          "indexed": false,
          "internalType": "uint256",
          "name": "amount",
          "type": "uint256"
        }
      ],
      "name": "Minted",
      "type": "event"
    },
    {
      "anonymous": false,
      "inputs": [
        {
          "indexed": true,
          "internalType": "address",
          "name": "previousOwner",
          "type": "address"
        },
        {
          "indexed": true,
          "internalType": "address",
          "name": "newOwner",
          "type": "address"
        }
      ],
      "name": "OwnershipTransferred",
      "type": "event"
    },
    {
      "anonymous": false,
      "inputs": [
        {
          "indexed": true,
          "internalType": "address",
          "name": "oldSplitter",
          "type": "address"
        },
        {
          "indexed": true,
          "internalType": "address",
          "name": "newSplitter",
          "type": "address"
        }
      ],
      "name": "SplitterUpdated",
      "type": "event"
    },
    {
      "anonymous": false,
      "inputs": [
        {
          "indexed": true,
          "internalType": "address",
          "name": "from",
          "type": "address"
        },
        {
          "indexed": true,
          "internalType": "address",
          "name": "to",
          "type": "address"
        },
        {
          "indexed": false,
          "internalType": "uint256",
          "name": "value",
          "type": "uint256"
        }
      ],
      "name": "Transfer",
      "type": "event"
    },
    {
      "inputs": [
        {
          "internalType": "address",
          "name": "owner",
          "type": "address"
        },
        {
          "internalType": "address",
          "name": "spender",
          "type": "address"
        }
      ],
      "name": "allowance",
      "outputs": [
        {
          "internalType": "uint256",
          "name": "",
          "type": "uint256"
        }
      ],
      "stateMutability": "view",
      "type": "function"
    },
    {
      "inputs": [
        {
          "internalType": "address",
          "name": "spender",
          "type": "address"
        },
        {
          "internalType": "uint256",
          "name": "value",
          "type": "uint256"
        }
      ],
      "name": "approve",
      "outputs": [
        {
          "internalType": "bool",
          "name": "",
          "type": "bool"
        }
      ],
      "stateMutability": "nonpayable",
      "type": "function"
    },
    {
      "inputs": [
        {
          "internalType": "address",
          "name": "account",
          "type": "address"
        }
      ],
      "name": "balanceOf",
      "outputs": [
        {
          "internalType": "uint256",
          "name": "",
          "type": "uint256"
        }
      ],
      "stateMutability": "view",
      "type": "function"
    },
    {
      "inputs": [
        {
          "internalType": "address",
          "name": "from",
          "type": "address"
        },
        {
          "internalType": "uint256",
          "name": "amount",
          "type": "uint256"
        }
      ],
      "name": "burn",
      "outputs": [],
      "stateMutability": "nonpayable",
      "type": "function"
    },
    {
      "inputs": [],
      "name": "decimals",
      "outputs": [
        {
          "internalType": "uint8",
          "name": "",
          "type": "uint8"
        }
      ],
      "stateMutability": "view",
      "type": "function"
    },
    {
      "inputs": [
        {
          "internalType": "address",
          "name": "to",
          "type": "address"
        },
        {
          "internalType": "uint256",
          "name": "amount",
          "type": "uint256"
        }
      ],
      "name": "mint",
      "outputs": [],
      "stateMutability": "nonpayable",
      "type": "function"
    },
    {
      "inputs": [],
      "name": "name",
      "outputs": [
        {
          "internalType": "string",
          "name": "",
          "type": "string"
        }
      ],
      "stateMutability": "view",
      "type": "function"
    },
    {
      "inputs": [],
      "name": "owner",
      "outputs": [
        {
          "internalType": "address",
          "name": "",
          "type": "address"
        }
      ],
      "stateMutability": "view",
      "type": "function"
    },
    {
      "inputs": [],
      "name": "renounceOwnership",
      "outputs": [],
      "stateMutability": "nonpayable",
      "type": "function"
    },
    {
      "inputs": [
        {
          "internalType": "address",
          "name": "_splitter",
          "type": "address"
        }
      ],
      "name": "setSplitter",
      "outputs": [],
      "stateMutability": "nonpayable",
      "type": "function"
    },
    {
      "inputs": [],
      "name": "splitter",
      "outputs": [
        {
          "internalType": "address",
          "name": "",
          "type": "address"
        }
      ],
      "stateMutability": "view",
      "type": "function"
    },
    {
      "inputs": [],
      "name": "symbol",
      "outputs": [
        {
          "internalType": "string",
          "name": "",
          "type": "string"
        }
      ],
      "stateMutability": "view",
      "type": "function"
    },
    {
      "inputs": [],
      "name": "totalSupply",
      "outputs": [
        {
          "internalType": "uint256",
          "name": "",
          "type": "uint256"
        }
      ],
      "stateMutability": "view",
      "type": "function"
    },
    {
      "inputs": [
        {
          "internalType": "address",
          "name": "to",
          "type": "address"
        },
        {
          "internalType": "uint256",
          "name": "value",
          "type": "uint256"
        }
      ],
      "name": "transfer",
      "outputs": [
        {
          "internalType": "bool",
          "name": "",
          "type": "bool"
        }
      ],
      "stateMutability": "nonpayable",
      "type": "function"
    },
    {
      "inputs": [
        {
          "internalType": "address",
          "name": "from",
          "type": "address"
        },
        {
          "internalType": "address",
          "name": "to",
          "type": "address"
        },
        {
          "internalType": "uint256",
          "name": "value",
          "type": "uint256"
        }
      ],
      "name": "transferFrom",
      "outputs": [
        {
          "internalType": "bool",
          "name": "",
          "type": "bool"
        }
      ],
      "stateMutability": "nonpayable",
      "type": "function"
    },
    {
      "inputs": [
        {
          "internalType": "address",
          "name": "newOwner",
          "type": "address"
        }
      ],
      "name": "transferOwnership",
      "outputs": [],
      "stateMutability": "nonpayable",
      "type": "function"
    }
  ],
  "bytecode": "0x608060405234801561000f575f5ffd5b50604051611cb2380380611cb2833981810160405281019061003191906102ed565b33828281600390816100439190610573565b5080600490816100539190610573565b5050505f73ffffffffffffffffffffffffffffffffffffffff168173ffffffffffffffffffffffffffffffffffffffff16036100c6575f6040517f1e4fbdf70000000000000000000000000000000000000000000000000000000081526004016100bd9190610681565b60405180910390fd5b6100d5816100dd60201b60201c565b50505061069a565b5f60055f9054906101000a900473ffffffffffffffffffffffffffffffffffffffff1690508160055f6101000a81548173ffffffffffffffffffffffffffffffffffffffff021916908373ffffffffffffffffffffffffffffffffffffffff1602179055508173ffffffffffffffffffffffffffffffffffffffff168173ffffffffffffffffffffffffffffffffffffffff167f8be0079c531659141344cd1fd0a4f28419497f9722a3daafe3b4186f6b6457e060405160405180910390a35050565b5f604051905090565b5f5ffd5b5f5ffd5b5f5ffd5b5f5ffd5b5f601f19601f8301169050919050565b7f4e487b71000000000000000000000000000000000000000000000000000000005f52604160045260245ffd5b6101ff826101b9565b810181811067ffffffffffffffff8211171561021e5761021d6101c9565b5b80604052505050565b5f6102306101a0565b905061023c82826101f6565b919050565b5f67ffffffffffffffff82111561025b5761025a6101c9565b5b610264826101b9565b9050602081019050919050565b8281835e5f83830152505050565b5f61029161028c84610241565b610227565b9050828152602081018484840111156102ad576102ac6101b5565b5b6102b8848285610271565b509392505050565b5f82601f8301126102d4576102d36101b1565b5b81516102e484826020860161027f565b91505092915050565b5f5f60408385031215610303576103026101a9565b5b5f83015167ffffffffffffffff8111156103205761031f6101ad565b5b61032c858286016102c0565b925050602083015167ffffffffffffffff81111561034d5761034c6101ad565b5b610359858286016102c0565b9150509250929050565b5f81519050919050565b7f4e487b71000000000000000000000000000000000000000000000000000000005f52602260045260245ffd5b5f60028204905060018216806103b157607f821691505b6020821081036103c4576103c361036d565b5b50919050565b5f819050815f5260205f209050919050565b5f6020601f8301049050919050565b5f82821b905092915050565b5f600883026104267fffffffffffffffffffffffffffffffffffffffffffffffffffffffffffffffff826103eb565b61043086836103eb565b95508019841693508086168417925050509392505050565b5f819050919050565b5f819050919050565b5f61047461046f61046a84610448565b610451565b610448565b9050919050565b5f819050919050565b61048d8361045a565b6104a16104998261047b565b8484546103f7565b825550505050565b5f5f905090565b6104b86104a9565b6104c3818484610484565b505050565b5b818110156104e6576104db5f826104b0565b6001810190506104c9565b5050565b601f82111561052b576104fc816103ca565b610505846103dc565b81016020851015610514578190505b610528610520856103dc565b8301826104c8565b50505b505050565b5f82821c905092915050565b5f61054b5f1984600802610530565b1980831691505092915050565b5f610563838361053c565b9150826002028217905092915050565b61057c82610363565b67ffffffffffffffff811115610595576105946101c9565b5b61059f825461039a565b6105aa8282856104ea565b5f60209050601f8311600181146105db575f84156105c9578287015190505b6105d38582610558565b86555061063a565b601f1984166105e9866103ca565b5f5b82811015610610578489015182556001820191506020850194506020810190506105eb565b8683101561062d5784890151610629601f89168261053c565b8355505b6001600288020188555050505b505050505050565b5f73ffffffffffffffffffffffffffffffffffffffff82169050919050565b5f61066b82610642565b9050919050565b61067b81610661565b82525050565b5f6020820190506106945f830184610672565b92915050565b61160b806106a75f395ff3fe608060405234801561000f575f5ffd5b50600436106100fe575f3560e01c8063715018a611610095578063a9059cbb11610064578063a9059cbb14610288578063c93fc83d146102b8578063dd62ed3e146102d4578063f2fde38b14610304576100fe565b8063715018a6146102265780638da5cb5b1461023057806395d89b411461024e5780639dc29fac1461026c576100fe565b8063313ce567116100d1578063313ce5671461019e5780633cd8045e146101bc57806340c10f19146101da57806370a08231146101f6576100fe565b806306fdde0314610102578063095ea7b31461012057806318160ddd1461015057806323b872dd1461016e575b5f5ffd5b61010a610320565b60405161011791906111b4565b60405180910390f35b61013a60048036038101906101359190611265565b6103b0565b60405161014791906112bd565b60405180910390f35b6101586103d2565b60405161016591906112e5565b60405180910390f35b610188600480360381019061018391906112fe565b6103db565b60405161019591906112bd565b60405180910390f35b6101a6610409565b6040516101b39190611369565b60405180910390f35b6101c4610411565b6040516101d19190611391565b60405180910390f35b6101f460048036038101906101ef9190611265565b610436565b005b610210600480360381019061020b91906113aa565b610521565b60405161021d91906112e5565b60405180910390f35b61022e610566565b005b610238610579565b6040516102459190611391565b60405180910390f35b6102566105a1565b60405161026391906111b4565b60405180910390f35b61028660048036038101906102819190611265565b610631565b005b6102a2600480360381019061029d9190611265565b61071c565b6040516102af91906112bd565b60405180910390f35b6102d260048036038101906102cd91906113aa565b61073e565b005b6102ee60048036038101906102e991906113d5565b610872565b6040516102fb91906112e5565b60405180910390f35b61031e600480360381019061031991906113aa565b6108f4565b005b60606003805461032f90611440565b80601f016020809104026020016040519081016040528092919081815260200182805461035b90611440565b80156103a65780601f1061037d576101008083540402835291602001916103a6565b820191905f5260205f20905b81548152906001019060200180831161038957829003601f168201915b5050505050905090565b5f5f6103ba610978565b90506103c781858561097f565b600191505092915050565b5f600254905090565b5f5f6103e5610978565b90506103f2858285610991565b6103fd858585610a24565b60019150509392505050565b5f6012905090565b60065f9054906101000a900473ffffffffffffffffffffffffffffffffffffffff1681565b60065f9054906101000a900473ffffffffffffffffffffffffffffffffffffffff1673ffffffffffffffffffffffffffffffffffffffff163373ffffffffffffffffffffffffffffffffffffffff16146104c5576040517f08c379a00000000000000000000000000000000000000000000000000000000081526004016104bc906114ba565b60405180910390fd5b6104cf8282610b14565b8173ffffffffffffffffffffffffffffffffffffffff167f30385c845b448a36257a6a1716e6ad2e1bc2cbe333cde1e69fe849ad6511adfe8260405161051591906112e5565b60405180910390a25050565b5f5f5f8373ffffffffffffffffffffffffffffffffffffffff1673ffffffffffffffffffffffffffffffffffffffff1681526020019081526020015f20549050919050565b61056e610b93565b6105775f610c1a565b565b5f60055f9054906101000a900473ffffffffffffffffffffffffffffffffffffffff16905090565b6060600480546105b090611440565b80601f01602080910402602001604051908101604052809291908181526020018280546105dc90611440565b80156106275780601f106105fe57610100808354040283529160200191610627565b820191905f5260205f20905b81548152906001019060200180831161060a57829003601f168201915b5050505050905090565b60065f9054906101000a900473ffffffffffffffffffffffffffffffffffffffff1673ffffffffffffffffffffffffffffffffffffffff163373ffffffffffffffffffffffffffffffffffffffff16146106c0576040517f08c379a00000000000000000000000000000000000000000000000000000000081526004016106b7906114ba565b60405180910390fd5b6106ca8282610cdd565b8173ffffffffffffffffffffffffffffffffffffffff167f696de425f79f4a40bc6d2122ca50507f0efbeabbff86a84871b7196ab8ea8df78260405161071091906112e5565b60405180910390a25050565b5f5f610726610978565b9050610733818585610a24565b600191505092915050565b610746610b93565b5f73ffffffffffffffffffffffffffffffffffffffff168173ffffffffffffffffffffffffffffffffffffffff16036107b4576040517f08c379a00000000000000000000000000000000000000000000000000000000081526004016107ab90611522565b60405180910390fd5b8073ffffffffffffffffffffffffffffffffffffffff1660065f9054906101000a900473ffffffffffffffffffffffffffffffffffffffff1673ffffffffffffffffffffffffffffffffffffffff167f6bc9a391eaa400e49105e972b9ab3dfdef26f0966566410c0d0fc02ae32e8eb360405160405180910390a38060065f6101000a81548173ffffffffffffffffffffffffffffffffffffffff021916908373ffffffffffffffffffffffffffffffffffffffff16021790555050565b5f60015f8473ffffffffffffffffffffffffffffffffffffffff1673ffffffffffffffffffffffffffffffffffffffff1681526020019081526020015f205f8373ffffffffffffffffffffffffffffffffffffffff1673ffffffffffffffffffffffffffffffffffffffff1681526020019081526020015f2054905092915050565b6108fc610b93565b5f73ffffffffffffffffffffffffffffffffffffffff168173ffffffffffffffffffffffffffffffffffffffff160361096c575f6040517f1e4fbdf70000000000000000000000000000000000000000000000000000000081526004016109639190611391565b60405180910390fd5b61097581610c1a565b50565b5f33905090565b61098c8383836001610d5c565b505050565b5f61099c8484610872565b90507fffffffffffffffffffffffffffffffffffffffffffffffffffffffffffffffff811015610a1e5781811015610a0f578281836040517ffb8f41b2000000000000000000000000000000000000000000000000000000008152600401610a0693929190611540565b60405180910390fd5b610a1d84848484035f610d5c565b5b50505050565b5f73ffffffffffffffffffffffffffffffffffffffff168373ffffffffffffffffffffffffffffffffffffffff1603610a94575f6040517f96c6fd1e000000000000000000000000000000000000000000000000000000008152600401610a8b9190611391565b60405180910390fd5b5f73ffffffffffffffffffffffffffffffffffffffff168273ffffffffffffffffffffffffffffffffffffffff1603610b04575f6040517fec442f05000000000000000000000000000000000000000000000000000000008152600401610afb9190611391565b60405180910390fd5b610b0f838383610f2b565b505050565b5f73ffffffffffffffffffffffffffffffffffffffff168273ffffffffffffffffffffffffffffffffffffffff1603610b84575f6040517fec442f05000000000000000000000000000000000000000000000000000000008152600401610b7b9190611391565b60405180910390fd5b610b8f5f8383610f2b565b5050565b610b9b610978565b73ffffffffffffffffffffffffffffffffffffffff16610bb9610579565b73ffffffffffffffffffffffffffffffffffffffff1614610c1857610bdc610978565b6040517f118cdaa7000000000000000000000000000000000000000000000000000000008152600401610c0f9190611391565b60405180910390fd5b565b5f60055f9054906101000a900473ffffffffffffffffffffffffffffffffffffffff1690508160055f6101000a81548173ffffffffffffffffffffffffffffffffffffffff021916908373ffffffffffffffffffffffffffffffffffffffff1602179055508173ffffffffffffffffffffffffffffffffffffffff168173ffffffffffffffffffffffffffffffffffffffff167f8be0079c531659141344cd1fd0a4f28419497f9722a3daafe3b4186f6b6457e060405160405180910390a35050565b5f73ffffffffffffffffffffffffffffffffffffffff168273ffffffffffffffffffffffffffffffffffffffff1603610d4d575f6040517f96c6fd1e000000000000000000000000000000000000000000000000000000008152600401610d449190611391565b60405180910390fd5b610d58825f83610f2b565b5050565b5f73ffffffffffffffffffffffffffffffffffffffff168473ffffffffffffffffffffffffffffffffffffffff1603610dcc575f6040517fe602df05000000000000000000000000000000000000000000000000000000008152600401610dc39190611391565b60405180910390fd5b5f73ffffffffffffffffffffffffffffffffffffffff168373ffffffffffffffffffffffffffffffffffffffff1603610e3c575f6040517f94280d62000000000000000000000000000000000000000000000000000000008152600401610e339190611391565b60405180910390fd5b8160015f8673ffffffffffffffffffffffffffffffffffffffff1673ffffffffffffffffffffffffffffffffffffffff1681526020019081526020015f205f8573ffffffffffffffffffffffffffffffffffffffff1673ffffffffffffffffffffffffffffffffffffffff1681526020019081526020015f20819055508015610f25578273ffffffffffffffffffffffffffffffffffffffff168473ffffffffffffffffffffffffffffffffffffffff167f8c5be1e5ebec7d5bd14f71427d1e84f3dd0314c0f7b2291e5b200ac8c7c3b92584604051610f1c91906112e5565b60405180910390a35b50505050565b5f73ffffffffffffffffffffffffffffffffffffffff168373ffffffffffffffffffffffffffffffffffffffff1603610f7b578060025f828254610f6f91906115a2565b92505081905550611049565b5f5f5f8573ffffffffffffffffffffffffffffffffffffffff1673ffffffffffffffffffffffffffffffffffffffff1681526020019081526020015f2054905081811015611004578381836040517fe450d38c000000000000000000000000000000000000000000000000000000008152600401610ffb93929190611540565b60405180910390fd5b8181035f5f8673ffffffffffffffffffffffffffffffffffffffff1673ffffffffffffffffffffffffffffffffffffffff1681526020019081526020015f2081905550505b5f73ffffffffffffffffffffffffffffffffffffffff168273ffffffffffffffffffffffffffffffffffffffff1603611090578060025f82825403925050819055506110da565b805f5f8473ffffffffffffffffffffffffffffffffffffffff1673ffffffffffffffffffffffffffffffffffffffff1681526020019081526020015f205f82825401925050819055505b8173ffffffffffffffffffffffffffffffffffffffff168373ffffffffffffffffffffffffffffffffffffffff167fddf252ad1be2c89b69c2b068fc378daa952ba7f163c4a11628f55a4df523b3ef8360405161113791906112e5565b60405180910390a3505050565b5f81519050919050565b5f82825260208201905092915050565b8281835e5f83830152505050565b5f601f19601f8301169050919050565b5f61118682611144565b611190818561114e565b93506111a081856020860161115e565b6111a98161116c565b840191505092915050565b5f6020820190508181035f8301526111cc818461117c565b905092915050565b5f5ffd5b5f73ffffffffffffffffffffffffffffffffffffffff82169050919050565b5f611201826111d8565b9050919050565b611211816111f7565b811461121b575f5ffd5b50565b5f8135905061122c81611208565b92915050565b5f819050919050565b61124481611232565b811461124e575f5ffd5b50565b5f8135905061125f8161123b565b92915050565b5f5f6040838503121561127b5761127a6111d4565b5b5f6112888582860161121e565b925050602061129985828601611251565b9150509250929050565b5f8115159050919050565b6112b7816112a3565b82525050565b5f6020820190506112d05f8301846112ae565b92915050565b6112df81611232565b82525050565b5f6020820190506112f85f8301846112d6565b92915050565b5f5f5f60608486031215611315576113146111d4565b5b5f6113228682870161121e565b93505060206113338682870161121e565b925050604061134486828701611251565b9150509250925092565b5f60ff82169050919050565b6113638161134e565b82525050565b5f60208201905061137c5f83018461135a565b92915050565b61138b816111f7565b82525050565b5f6020820190506113a45f830184611382565b92915050565b5f602082840312156113bf576113be6111d4565b5b5f6113cc8482850161121e565b91505092915050565b5f5f604083850312156113eb576113ea6111d4565b5b5f6113f88582860161121e565b92505060206114098582860161121e565b9150509250929050565b7f4e487b71000000000000000000000000000000000000000000000000000000005f52602260045260245ffd5b5f600282049050600182168061145757607f821691505b60208210810361146a57611469611413565b5b50919050565b7f4e6f742073706c697474657200000000000000000000000000000000000000005f82015250565b5f6114a4600c8361114e565b91506114af82611470565b602082019050919050565b5f6020820190508181035f8301526114d181611498565b9050919050565b7f496e76616c69642073706c6974746572000000000000000000000000000000005f82015250565b5f61150c60108361114e565b9150611517826114d8565b602082019050919050565b5f6020820190508181035f83015261153981611500565b9050919050565b5f6060820190506115535f830186611382565b61156060208301856112d6565b61156d60408301846112d6565b949350505050565b7f4e487b71000000000000000000000000000000000000000000000000000000005f52601160045260245ffd5b5f6115ac82611232565b91506115b783611232565b92508282019050808211156115cf576115ce611575565b5b9291505056fea2646970667358221220e1b17f61752f2b94d6e2070a8980d6cd905f1623f13a8dd254ccc1b6a08853a664736f6c634300081c0033",
  "linkReferences": {},
  "deployedLinkReferences": {},
  "immutableReferences": {},
  "inputSourceName": "project/contracts/Splitter/PTYT.sol",
  "buildInfoId": "solc-0_8_28-f559326bab170cd17891e57df2c137ab7c38df28",
  "address": "0x175BFC27980DbfDd21BB1C51A138adf31703FC2D"
}