{
    "_format": "hh3-artifact-1",
    "contractName": "Vault",
    "sourceName": "contracts/Vault/Vault.sol",
    "abi": [
        {
            "inputs": [
                {
                    "internalType": "address",
                    "name": "_gPAS",
                    "type": "address"
                },
                {
                    "internalType": "address",
                    "name": "_oracle",
                    "type": "address"
                }
            ],
            "stateMutability": "nonpayable",
            "type": "constructor"
        },
        {
            "inputs": [
                {
                    "internalType": "address",
                    "name": "owner",
                    "type": "address"
                }
            ],
            "name": "OwnableInvalidOwner",
            "type": "error"
        },
        {
            "inputs": [
                {
                    "internalType": "address",
                    "name": "account",
                    "type": "address"
                }
            ],
            "name": "OwnableUnauthorizedAccount",
            "type": "error"
        },
        {
            "inputs": [],
            "name": "ReentrancyGuardReentrantCall",
            "type": "error"
        },
        {
            "anonymous": false,
            "inputs": [
                {
                    "indexed": true,
                    "internalType": "bytes32",
                    "name": "receiptHash",
                    "type": "bytes32"
                },
                {
                    "indexed": true,
                    "internalType": "address",
                    "name": "user",
                    "type": "address"
                },
                {
                    "indexed": false,
                    "internalType": "uint256",
                    "name": "amount",
                    "type": "uint256"
                }
            ],
            "name": "DepositReceipt",
            "type": "event"
        },
        {
            "anonymous": false,
            "inputs": [
                {
                    "indexed": true,
                    "internalType": "bytes32",
                    "name": "keccakHash",
                    "type": "bytes32"
                },
                {
                    "indexed": true,
                    "internalType": "bytes32",
                    "name": "blake2Hash",
                    "type": "bytes32"
                },
                {
                    "indexed": true,
                    "internalType": "address",
                    "name": "user",
                    "type": "address"
                },
                {
                    "indexed": false,
                    "internalType": "uint256",
                    "name": "amount",
                    "type": "uint256"
                },
                {
                    "indexed": false,
                    "internalType": "bool",
                    "name": "systemPrecompileUsed",
                    "type": "bool"
                }
            ],
            "name": "DepositReceiptDigests",
            "type": "event"
        },
        {
            "anonymous": false,
            "inputs": [
                {
                    "indexed": false,
                    "internalType": "uint256",
                    "name": "oldRate",
                    "type": "uint256"
                },
                {
                    "indexed": false,
                    "internalType": "uint256",
                    "name": "newRate",
                    "type": "uint256"
                }
            ],
            "name": "ExchangeRateUpdated",
            "type": "event"
        },
        {
            "anonymous": false,
            "inputs": [
                {
                    "indexed": true,
                    "internalType": "uint32",
                    "name": "assetId",
                    "type": "uint32"
                },
                {
                    "indexed": true,
                    "internalType": "address",
                    "name": "tokenAddress",
                    "type": "address"
                }
            ],
            "name": "NativeAssetConfigured",
            "type": "event"
        },
        {
            "anonymous": false,
            "inputs": [
                {
                    "indexed": true,
                    "internalType": "address",
                    "name": "user",
                    "type": "address"
                },
                {
                    "indexed": true,
                    "internalType": "uint32",
                    "name": "assetId",
                    "type": "uint32"
                },
                {
                    "indexed": false,
                    "internalType": "uint256",
                    "name": "amount",
                    "type": "uint256"
                }
            ],
            "name": "NativeAssetDeposited",
            "type": "event"
        },
        {
            "anonymous": false,
            "inputs": [
                {
                    "indexed": true,
                    "internalType": "address",
                    "name": "user",
                    "type": "address"
                },
                {
                    "indexed": true,
                    "internalType": "uint32",
                    "name": "assetId",
                    "type": "uint32"
                },
                {
                    "indexed": false,
                    "internalType": "uint256",
                    "name": "amount",
                    "type": "uint256"
                }
            ],
            "name": "NativeAssetWithdrawn",
            "type": "event"
        },
        {
            "anonymous": false,
            "inputs": [
                {
                    "indexed": true,
                    "internalType": "address",
                    "name": "oldOracle",
                    "type": "address"
                },
                {
                    "indexed": true,
                    "internalType": "address",
                    "name": "newOracle",
                    "type": "address"
                }
            ],
            "name": "OracleUpdated",
            "type": "event"
        },
        {
            "anonymous": false,
            "inputs": [
                {
                    "indexed": true,
                    "internalType": "address",
                    "name": "previousOwner",
                    "type": "address"
                },
                {
                    "indexed": true,
                    "internalType": "address",
                    "name": "newOwner",
                    "type": "address"
                }
            ],
            "name": "OwnershipTransferred",
            "type": "event"
        },
        {
            "stateMutability": "payable",
            "type": "fallback"
        },
        {
            "inputs": [],
            "name": "RATE_PRECISION",
            "outputs": [
                {
                    "internalType": "uint256",
                    "name": "",
                    "type": "uint256"
                }
            ],
            "stateMutability": "view",
            "type": "function"
        },
        {
            "inputs": [],
            "name": "addSimulatedRewards",
            "outputs": [],
            "stateMutability": "payable",
            "type": "function"
        },
        {
            "inputs": [
                {
                    "internalType": "uint32",
                    "name": "_assetId",
                    "type": "uint32"
                }
            ],
            "name": "configureNativeAsset",
            "outputs": [],
            "stateMutability": "nonpayable",
            "type": "function"
        },
        {
            "inputs": [],
            "name": "deposit",
            "outputs": [],
            "stateMutability": "payable",
            "type": "function"
        },
        {
            "inputs": [
                {
                    "internalType": "uint256",
                    "name": "amount",
                    "type": "uint256"
                }
            ],
            "name": "depositNativeAsset",
            "outputs": [],
            "stateMutability": "nonpayable",
            "type": "function"
        },
        {
            "inputs": [],
            "name": "exchangeRate",
            "outputs": [
                {
                    "internalType": "uint256",
                    "name": "",
                    "type": "uint256"
                }
            ],
            "stateMutability": "view",
            "type": "function"
        },
        {
            "inputs": [],
            "name": "gPasToken",
            "outputs": [
                {
                    "internalType": "contract gPAS",
                    "name": "",
                    "type": "address"
                }
            ],
            "stateMutability": "view",
            "type": "function"
        },
        {
            "inputs": [
                {
                    "internalType": "address",
                    "name": "",
                    "type": "address"
                }
            ],
            "name": "nativeAssetBalances",
            "outputs": [
                {
                    "internalType": "uint256",
                    "name": "",
                    "type": "uint256"
                }
            ],
            "stateMutability": "view",
            "type": "function"
        },
        {
            "inputs": [],
            "name": "nativeAssetConfigured",
            "outputs": [
                {
                    "internalType": "bool",
                    "name": "",
                    "type": "bool"
                }
            ],
            "stateMutability": "view",
            "type": "function"
        },
        {
            "inputs": [],
            "name": "nativeAssetId",
            "outputs": [
                {
                    "internalType": "uint32",
                    "name": "",
                    "type": "uint32"
                }
            ],
            "stateMutability": "view",
            "type": "function"
        },
        {
            "inputs": [],
            "name": "nativeAssetToken",
            "outputs": [
                {
                    "internalType": "address",
                    "name": "",
                    "type": "address"
                }
            ],
            "stateMutability": "view",
            "type": "function"
        },
        {
            "inputs": [],
            "name": "oracle",
            "outputs": [
                {
                    "internalType": "address",
                    "name": "",
                    "type": "address"
                }
            ],
            "stateMutability": "view",
            "type": "function"
        },
        {
            "inputs": [],
            "name": "owner",
            "outputs": [
                {
                    "internalType": "address",
                    "name": "",
                    "type": "address"
                }
            ],
            "stateMutability": "view",
            "type": "function"
        },
        {
            "inputs": [],
            "name": "renounceOwnership",
            "outputs": [],
            "stateMutability": "nonpayable",
            "type": "function"
        },
        {
            "inputs": [
                {
                    "internalType": "uint256",
                    "name": "_newExchangeRate",
                    "type": "uint256"
                }
            ],
            "name": "setExchangeRate",
            "outputs": [],
            "stateMutability": "nonpayable",
            "type": "function"
        },
        {
            "inputs": [
                {
                    "internalType": "address",
                    "name": "_newOracle",
                    "type": "address"
                }
            ],
            "name": "setOracle",
            "outputs": [],
            "stateMutability": "nonpayable",
            "type": "function"
        },
        {
            "inputs": [],
            "name": "totalNativeAssetBalance",
            "outputs": [
                {
                    "internalType": "uint256",
                    "name": "",
                    "type": "uint256"
                }
            ],
            "stateMutability": "view",
            "type": "function"
        },
        {
            "inputs": [
                {
                    "internalType": "address",
                    "name": "newOwner",
                    "type": "address"
                }
            ],
            "name": "transferOwnership",
            "outputs": [],
            "stateMutability": "nonpayable",
            "type": "function"
        },
        {
            "inputs": [
                {
                    "internalType": "uint256",
                    "name": "_amount",
                    "type": "uint256"
                }
            ],
            "name": "withdraw",
            "outputs": [],
            "stateMutability": "payable",
            "type": "function"
        },
        {
            "inputs": [
                {
                    "internalType": "uint256",
                    "name": "amount",
                    "type": "uint256"
                }
            ],
            "name": "withdrawNativeAsset",
            "outputs": [],
            "stateMutability": "nonpayable",
            "type": "function"
        },
        {
            "stateMutability": "payable",
            "type": "receive"
        }
    ],
    "bytecode": "0x608060405234801561000f575f5ffd5b506040516124593803806124598339818101604052810190610031919061026e565b335f73ffffffffffffffffffffffffffffffffffffffff168173ffffffffffffffffffffffffffffffffffffffff16036100a2575f6040517f1e4fbdf700000000000000000000000000000000000000000000000000000000815260040161009991906102bb565b60405180910390fd5b6100b18161014f60201b60201c565b50600180819055508160025f6101000a81548173ffffffffffffffffffffffffffffffffffffffff021916908373ffffffffffffffffffffffffffffffffffffffff160217905550670de0b6b3a76400006003819055508060045f6101000a81548173ffffffffffffffffffffffffffffffffffffffff021916908373ffffffffffffffffffffffffffffffffffffffff16021790555050506102d4565b5f5f5f9054906101000a900473ffffffffffffffffffffffffffffffffffffffff169050815f5f6101000a81548173ffffffffffffffffffffffffffffffffffffffff021916908373ffffffffffffffffffffffffffffffffffffffff1602179055508173ffffffffffffffffffffffffffffffffffffffff168173ffffffffffffffffffffffffffffffffffffffff167f8be0079c531659141344cd1fd0a4f28419497f9722a3daafe3b4186f6b6457e060405160405180910390a35050565b5f5ffd5b5f73ffffffffffffffffffffffffffffffffffffffff82169050919050565b5f61023d82610214565b9050919050565b61024d81610233565b8114610257575f5ffd5b50565b5f8151905061026881610244565b92915050565b5f5f6040838503121561028457610283610210565b5b5f6102918582860161025a565b92505060206102a28582860161025a565b9150509250929050565b6102b581610233565b82525050565b5f6020820190506102ce5f8301846102ac565b92915050565b612178806102e15f395ff3fe608060405260043610610122575f3560e01c80637dc0d1d01161009f578063b1218dbe11610063578063b1218dbe14610353578063d0e30db01461037b578063db068e0e14610385578063f2fde38b146103ad578063fbb3f300146103d557610123565b80637dc0d1d0146102835780638da5cb5b146102ad57806394b03678146102d75780639ecc61d214610301578063aafcde841461032957610123565b80634a1696e4116100e65780634a1696e4146101e75780636759cbbc146102115780636e10c1cc1461021b578063715018a6146102455780637adbf9731461025b57610123565b8063025462d2146101255780632722811c1461014d5780632b3ba681146101775780632e1a7d4d146101a15780633ba0b9a9146101bd57610123565b5b005b348015610130575f5ffd5b5061014b600480360381019061014691906115b6565b610411565b005b348015610158575f5ffd5b50610161610669565b60405161016e9190611620565b60405180910390f35b348015610182575f5ffd5b5061018b61068e565b6040516101989190611648565b60405180910390f35b6101bb60048036038101906101b691906115b6565b61069a565b005b3480156101c8575f5ffd5b506101d1610889565b6040516101de9190611648565b60405180910390f35b3480156101f2575f5ffd5b506101fb61088f565b6040516102089190611648565b60405180910390f35b610219610895565b005b348015610226575f5ffd5b5061022f6109eb565b60405161023c91906116bc565b60405180910390f35b348015610250575f5ffd5b50610259610a10565b005b348015610266575f5ffd5b50610281600480360381019061027c91906116ff565b610a23565b005b34801561028e575f5ffd5b50610297610ae9565b6040516102a49190611620565b60405180910390f35b3480156102b8575f5ffd5b506102c1610b0e565b6040516102ce9190611620565b60405180910390f35b3480156102e2575f5ffd5b506102eb610b35565b6040516102f89190611744565b60405180910390f35b34801561030c575f5ffd5b50610327600480360381019061032291906115b6565b610b48565b005b348015610334575f5ffd5b5061033d610e1d565b60405161034a919061177b565b60405180910390f35b34801561035e575f5ffd5b50610379600480360381019061037491906117be565b610e33565b005b610383610f2d565b005b348015610390575f5ffd5b506103ab60048036038101906103a691906115b6565b611115565b005b3480156103b8575f5ffd5b506103d360048036038101906103ce91906116ff565b6111e9565b005b3480156103e0575f5ffd5b506103fb60048036038101906103f691906116ff565b61126d565b6040516104089190611648565b60405180910390f35b610419611282565b600560149054906101000a900460ff16610468576040517f08c379a000000000000000000000000000000000000000000000000000000000815260040161045f90611843565b60405180910390fd5b5f81116104aa576040517f08c379a00000000000000000000000000000000000000000000000000000000081526004016104a1906118ab565b60405180910390fd5b5f60055f9054906101000a900473ffffffffffffffffffffffffffffffffffffffff1673ffffffffffffffffffffffffffffffffffffffff166323b872dd3330856040518463ffffffff1660e01b8152600401610509939291906118c9565b6020604051808303815f875af1158015610525573d5f5f3e3d5ffd5b505050506040513d601f19601f820116820180604052508101906105499190611928565b90508061058b576040517f08c379a00000000000000000000000000000000000000000000000000000000081526004016105829061199d565b60405180910390fd5b8160065f3373ffffffffffffffffffffffffffffffffffffffff1673ffffffffffffffffffffffffffffffffffffffff1681526020019081526020015f205f8282546105d791906119e8565b925050819055508160075f8282546105ef91906119e8565b92505081905550600460149054906101000a900463ffffffff1663ffffffff163373ffffffffffffffffffffffffffffffffffffffff167f3d26e4a733e6d08f68675156a7637192e3957e8501e7808d58f53d7c31646dd6846040516106559190611648565b60405180910390a3506106666112c8565b50565b60055f9054906101000a900473ffffffffffffffffffffffffffffffffffffffff1681565b670de0b6b3a764000081565b6106a2611282565b5f81116106e4576040517f08c379a00000000000000000000000000000000000000000000000000000000081526004016106db90611a65565b60405180910390fd5b60025f9054906101000a900473ffffffffffffffffffffffffffffffffffffffff1673ffffffffffffffffffffffffffffffffffffffff16639dc29fac33836040518363ffffffff1660e01b8152600401610740929190611a83565b5f604051808303815f87803b158015610757575f5ffd5b505af1158015610769573d5f5f3e3d5ffd5b505050505f670de0b6b3a7640000600354836107859190611aaa565b61078f9190611b18565b9050804710156107d4576040517f08c379a00000000000000000000000000000000000000000000000000000000081526004016107cb90611b92565b60405180910390fd5b5f3373ffffffffffffffffffffffffffffffffffffffff16826040516107f990611bdd565b5f6040518083038185875af1925050503d805f8114610833576040519150601f19603f3d011682016040523d82523d5f602084013e610838565b606091505b505090508061087c576040517f08c379a000000000000000000000000000000000000000000000000000000000815260040161087390611c3b565b60405180910390fd5b50506108866112c8565b50565b60035481565b60075481565b5f34116108d7576040517f08c379a00000000000000000000000000000000000000000000000000000000081526004016108ce90611ca3565b60405180910390fd5b5f60025f9054906101000a900473ffffffffffffffffffffffffffffffffffffffff1673ffffffffffffffffffffffffffffffffffffffff166318160ddd6040518163ffffffff1660e01b8152600401602060405180830381865afa158015610942573d5f5f3e3d5ffd5b505050506040513d601f19601f820116820180604052508101906109669190611cd5565b90505f8111156109e8575f81670de0b6b3a7640000346109869190611aaa565b6109909190611b18565b90505f816003546109a191906119e8565b90507fc8d1043f24843c0a1c9251fdc30017d84e87498fbcf232af9f86816b5e182bde600354826040516109d6929190611d00565b60405180910390a18060038190555050505b50565b60025f9054906101000a900473ffffffffffffffffffffffffffffffffffffffff1681565b610a186112d1565b610a215f611358565b565b610a2b6112d1565b8073ffffffffffffffffffffffffffffffffffffffff1660045f9054906101000a900473ffffffffffffffffffffffffffffffffffffffff1673ffffffffffffffffffffffffffffffffffffffff167f078c3b417dadf69374a59793b829c52001247130433427049317bde56607b1b760405160405180910390a38060045f6101000a81548173ffffffffffffffffffffffffffffffffffffffff021916908373ffffffffffffffffffffffffffffffffffffffff16021790555050565b60045f9054906101000a900473ffffffffffffffffffffffffffffffffffffffff1681565b5f5f5f9054906101000a900473ffffffffffffffffffffffffffffffffffffffff16905090565b600560149054906101000a900460ff1681565b610b50611282565b600560149054906101000a900460ff16610b9f576040517f08c379a0000000000000000000000000000000000000000000000000000000008152600401610b9690611843565b60405180910390fd5b5f8111610be1576040517f08c379a0000000000000000000000000000000000000000000000000000000008152600401610bd8906118ab565b60405180910390fd5b5f60065f3373ffffffffffffffffffffffffffffffffffffffff1673ffffffffffffffffffffffffffffffffffffffff1681526020019081526020015f2054905081811015610c65576040517f08c379a0000000000000000000000000000000000000000000000000000000008152600401610c5c90611d97565b60405180910390fd5b8181610c719190611db5565b60065f3373ffffffffffffffffffffffffffffffffffffffff1673ffffffffffffffffffffffffffffffffffffffff1681526020019081526020015f20819055508160075f828254610cc39190611db5565b925050819055505f60055f9054906101000a900473ffffffffffffffffffffffffffffffffffffffff1673ffffffffffffffffffffffffffffffffffffffff1663a9059cbb33856040518363ffffffff1660e01b8152600401610d27929190611a83565b6020604051808303815f875af1158015610d43573d5f5f3e3d5ffd5b505050506040513d601f19601f82011682018060405250810190610d679190611928565b905080610da9576040517f08c379a0000000000000000000000000000000000000000000000000000000008152600401610da090611e32565b60405180910390fd5b600460149054906101000a900463ffffffff1663ffffffff163373ffffffffffffffffffffffffffffffffffffffff167f6318b29913f6656f84a5161af71f76f98d513f941ad5fb26b17b5c742ab048c985604051610e089190611648565b60405180910390a35050610e1a6112c8565b50565b600460149054906101000a900463ffffffff1681565b610e3b6112d1565b80600460146101000a81548163ffffffff021916908363ffffffff160217905550610e6581611419565b60055f6101000a81548173ffffffffffffffffffffffffffffffffffffffff021916908373ffffffffffffffffffffffffffffffffffffffff1602179055506001600560146101000a81548160ff02191690831515021790555060055f9054906101000a900473ffffffffffffffffffffffffffffffffffffffff1673ffffffffffffffffffffffffffffffffffffffff168163ffffffff167fe08976a73af687b2aca6ed23537f1c8c5acef8181361327cdb4bf13030dd83d260405160405180910390a350565b610f35611282565b5f3411610f77576040517f08c379a0000000000000000000000000000000000000000000000000000000008152600401610f6e90611e9a565b60405180910390fd5b5f600354670de0b6b3a764000034610f8f9190611aaa565b610f999190611b18565b90505f333442604051602001610fb193929190611f1d565b60405160208183030381529060405290505f818051906020012090505f5f610fd88461144d565b9150915060025f9054906101000a900473ffffffffffffffffffffffffffffffffffffffff1673ffffffffffffffffffffffffffffffffffffffff166340c10f1933876040518363ffffffff1660e01b8152600401611038929190611a83565b5f604051808303815f87803b15801561104f575f5ffd5b505af1158015611061573d5f5f3e3d5ffd5b505050503373ffffffffffffffffffffffffffffffffffffffff16837f04a835b3ba149221c34405a7a0c1e734f4d6801a372dd19f2d4da7a744e8f700346040516110ac9190611648565b60405180910390a33373ffffffffffffffffffffffffffffffffffffffff1682847fbda190d985fe0d2e713602d2625e9e2baafbfde5308a21af955ea2a25b5de92834856040516110fe929190611f59565b60405180910390a450505050506111136112c8565b565b60045f9054906101000a900473ffffffffffffffffffffffffffffffffffffffff1673ffffffffffffffffffffffffffffffffffffffff163373ffffffffffffffffffffffffffffffffffffffff16146111a4576040517f08c379a000000000000000000000000000000000000000000000000000000000815260040161119b90611ff0565b60405180910390fd5b7fc8d1043f24843c0a1c9251fdc30017d84e87498fbcf232af9f86816b5e182bde600354826040516111d7929190611d00565b60405180910390a18060038190555050565b6111f16112d1565b5f73ffffffffffffffffffffffffffffffffffffffff168173ffffffffffffffffffffffffffffffffffffffff1603611261575f6040517f1e4fbdf70000000000000000000000000000000000000000000000000000000081526004016112589190611620565b60405180910390fd5b61126a81611358565b50565b6006602052805f5260405f205f915090505481565b6002600154036112be576040517f3ee5aeb500000000000000000000000000000000000000000000000000000000815260040160405180910390fd5b6002600181905550565b60018081905550565b6112d9611578565b73ffffffffffffffffffffffffffffffffffffffff166112f7610b0e565b73ffffffffffffffffffffffffffffffffffffffff16146113565761131a611578565b6040517f118cdaa700000000000000000000000000000000000000000000000000000000815260040161134d9190611620565b60405180910390fd5b565b5f5f5f9054906101000a900473ffffffffffffffffffffffffffffffffffffffff169050815f5f6101000a81548173ffffffffffffffffffffffffffffffffffffffff021916908373ffffffffffffffffffffffffffffffffffffffff1602179055508173ffffffffffffffffffffffffffffffffffffffff168173ffffffffffffffffffffffffffffffffffffffff167f8be0079c531659141344cd1fd0a4f28419497f9722a3daafe3b4186f6b6457e060405160405180910390a35050565b5f5f60808363ffffffff1673ffffffffffffffffffffffffffffffffffffffff16901b905063012000008117915050919050565b5f5f606061090073ffffffffffffffffffffffffffffffffffffffff1663c7dff68660e01b85604051602401611483919061207e565b604051602081830303815290604052907bffffffffffffffffffffffffffffffffffffffffffffffffffffffff19166020820180517bffffffffffffffffffffffffffffffffffffffffffffffffffffffff83818316178352505050506040516114ed91906120ce565b5f60405180830381855afa9150503d805f8114611525576040519150601f19603f3d011682016040523d82523d5f602084013e61152a565b606091505b508092508193505050811580611541575060208151105b15611554575f5f1b5f9250925050611573565b808060200190518101906115689190612117565b925082600192509250505b915091565b5f33905090565b5f5ffd5b5f819050919050565b61159581611583565b811461159f575f5ffd5b50565b5f813590506115b08161158c565b92915050565b5f602082840312156115cb576115ca61157f565b5b5f6115d8848285016115a2565b91505092915050565b5f73ffffffffffffffffffffffffffffffffffffffff82169050919050565b5f61160a826115e1565b9050919050565b61161a81611600565b82525050565b5f6020820190506116335f830184611611565b92915050565b61164281611583565b82525050565b5f60208201905061165b5f830184611639565b92915050565b5f819050919050565b5f61168461167f61167a846115e1565b611661565b6115e1565b9050919050565b5f6116958261166a565b9050919050565b5f6116a68261168b565b9050919050565b6116b68161169c565b82525050565b5f6020820190506116cf5f8301846116ad565b92915050565b6116de81611600565b81146116e8575f5ffd5b50565b5f813590506116f9816116d5565b92915050565b5f602082840312156117145761171361157f565b5b5f611721848285016116eb565b91505092915050565b5f8115159050919050565b61173e8161172a565b82525050565b5f6020820190506117575f830184611735565b92915050565b5f63ffffffff82169050919050565b6117758161175d565b82525050565b5f60208201905061178e5f83018461176c565b92915050565b61179d8161175d565b81146117a7575f5ffd5b50565b5f813590506117b881611794565b92915050565b5f602082840312156117d3576117d261157f565b5b5f6117e0848285016117aa565b91505092915050565b5f82825260208201905092915050565b7f4e6174697665206173736574206e6f7420636f6e6669677572656400000000005f82015250565b5f61182d601b836117e9565b9150611838826117f9565b602082019050919050565b5f6020820190508181035f83015261185a81611821565b9050919050565b7f416d6f756e742068617320746f206265203e20300000000000000000000000005f82015250565b5f6118956014836117e9565b91506118a082611861565b602082019050919050565b5f6020820190508181035f8301526118c281611889565b9050919050565b5f6060820190506118dc5f830186611611565b6118e96020830185611611565b6118f66040830184611639565b949350505050565b6119078161172a565b8114611911575f5ffd5b50565b5f81519050611922816118fe565b92915050565b5f6020828403121561193d5761193c61157f565b5b5f61194a84828501611914565b91505092915050565b7f4e6174697665206173736574207472616e7366657246726f6d206661696c65645f82015250565b5f6119876020836117e9565b915061199282611953565b602082019050919050565b5f6020820190508181035f8301526119b48161197b565b9050919050565b7f4e487b71000000000000000000000000000000000000000000000000000000005f52601160045260245ffd5b5f6119f282611583565b91506119fd83611583565b9250828201905080821115611a1557611a146119bb565b5b92915050565b7f6750415320616d6f756e742068617320746f206265203e2030000000000000005f82015250565b5f611a4f6019836117e9565b9150611a5a82611a1b565b602082019050919050565b5f6020820190508181035f830152611a7c81611a43565b9050919050565b5f604082019050611a965f830185611611565b611aa36020830184611639565b9392505050565b5f611ab482611583565b9150611abf83611583565b9250828202611acd81611583565b91508282048414831517611ae457611ae36119bb565b5b5092915050565b7f4e487b71000000000000000000000000000000000000000000000000000000005f52601260045260245ffd5b5f611b2282611583565b9150611b2d83611583565b925082611b3d57611b3c611aeb565b5b828204905092915050565b7f4e6f7420656e6f7567682050415320696e207661756c740000000000000000005f82015250565b5f611b7c6017836117e9565b9150611b8782611b48565b602082019050919050565b5f6020820190508181035f830152611ba981611b70565b9050919050565b5f81905092915050565b50565b5f611bc85f83611bb0565b9150611bd382611bba565b5f82019050919050565b5f611be782611bbd565b9150819050919050565b7f504153207472616e73666572206661696c6564000000000000000000000000005f82015250565b5f611c256013836117e9565b9150611c3082611bf1565b602082019050919050565b5f6020820190508181035f830152611c5281611c19565b9050919050565b7f4e6f20726577617264732073656e7400000000000000000000000000000000005f82015250565b5f611c8d600f836117e9565b9150611c9882611c59565b602082019050919050565b5f6020820190508181035f830152611cba81611c81565b9050919050565b5f81519050611ccf8161158c565b92915050565b5f60208284031215611cea57611ce961157f565b5b5f611cf784828501611cc1565b91505092915050565b5f604082019050611d135f830185611639565b611d206020830184611639565b9392505050565b7f496e73756666696369656e74206e61746976652061737365742062616c616e635f8201527f6500000000000000000000000000000000000000000000000000000000000000602082015250565b5f611d816021836117e9565b9150611d8c82611d27565b604082019050919050565b5f6020820190508181035f830152611dae81611d75565b9050919050565b5f611dbf82611583565b9150611dca83611583565b9250828203905081811115611de257611de16119bb565b5b92915050565b7f4e6174697665206173736574207472616e73666572206661696c6564000000005f82015250565b5f611e1c601c836117e9565b9150611e2782611de8565b602082019050919050565b5f6020820190508181035f830152611e4981611e10565b9050919050565b7f4e6f205041532073656e740000000000000000000000000000000000000000005f82015250565b5f611e84600b836117e9565b9150611e8f82611e50565b602082019050919050565b5f6020820190508181035f830152611eb181611e78565b9050919050565b5f8160601b9050919050565b5f611ece82611eb8565b9050919050565b5f611edf82611ec4565b9050919050565b611ef7611ef282611600565b611ed5565b82525050565b5f819050919050565b611f17611f1282611583565b611efd565b82525050565b5f611f288286611ee6565b601482019150611f388285611f06565b602082019150611f488284611f06565b602082019150819050949350505050565b5f604082019050611f6c5f830185611639565b611f796020830184611735565b9392505050565b7f4f6e6c79204f7261636c652063616e2063616c6c20746869732066756e6374695f8201527f6f6e000000000000000000000000000000000000000000000000000000000000602082015250565b5f611fda6022836117e9565b9150611fe582611f80565b604082019050919050565b5f6020820190508181035f83015261200781611fce565b9050919050565b5f81519050919050565b5f82825260208201905092915050565b8281835e5f83830152505050565b5f601f19601f8301169050919050565b5f6120508261200e565b61205a8185612018565b935061206a818560208601612028565b61207381612036565b840191505092915050565b5f6020820190508181035f8301526120968184612046565b905092915050565b5f6120a88261200e565b6120b28185611bb0565b93506120c2818560208601612028565b80840191505092915050565b5f6120d9828461209e565b915081905092915050565b5f819050919050565b6120f6816120e4565b8114612100575f5ffd5b50565b5f81519050612111816120ed565b92915050565b5f6020828403121561212c5761212b61157f565b5b5f61213984828501612103565b9150509291505056fea26469706673582212208f1c99ec1e2bfe91835583cc10145034092e9c07a529478d5c6cffba9e3fabe564736f6c634300081c0033",
    "linkReferences": {},
    "deployedLinkReferences": {},
    "immutableReferences": {},
    "inputSourceName": "project/contracts/Vault/Vault.sol",
    "buildInfoId": "solc-0_8_28-aa9b7e13412a7f9e32e61cf9290be00446120462",
    "address": "0xB11e5Cb9D8924a6153A9EdaCe85f117FE52b29c7"
}