{
  "_format": "hh3-artifact-1",
  "contractName": "XcmGateway",
  "sourceName": "contracts/PVM/XcmGateway.sol",
  "abi": [
    {
      "inputs": [
        {
          "internalType": "address",
          "name": "initialOwner",
          "type": "address"
        }
      ],
      "stateMutability": "nonpayable",
      "type": "constructor"
    },
    {
      "inputs": [
        {
          "internalType": "address",
          "name": "owner",
          "type": "address"
        }
      ],
      "name": "OwnableInvalidOwner",
      "type": "error"
    },
    {
      "inputs": [
        {
          "internalType": "address",
          "name": "account",
          "type": "address"
        }
      ],
      "name": "OwnableUnauthorizedAccount",
      "type": "error"
    },
    {
      "anonymous": false,
      "inputs": [
        {
          "indexed": true,
          "internalType": "address",
          "name": "previousOwner",
          "type": "address"
        },
        {
          "indexed": true,
          "internalType": "address",
          "name": "newOwner",
          "type": "address"
        }
      ],
      "name": "OwnershipTransferred",
      "type": "event"
    },
    {
      "anonymous": false,
      "inputs": [
        {
          "indexed": true,
          "internalType": "bytes32",
          "name": "messageHash",
          "type": "bytes32"
        },
        {
          "indexed": false,
          "internalType": "uint64",
          "name": "refTime",
          "type": "uint64"
        },
        {
          "indexed": false,
          "internalType": "uint64",
          "name": "proofSize",
          "type": "uint64"
        },
        {
          "indexed": false,
          "internalType": "bool",
          "name": "success",
          "type": "bool"
        }
      ],
      "name": "XcmMessageExecuted",
      "type": "event"
    },
    {
      "anonymous": false,
      "inputs": [
        {
          "indexed": true,
          "internalType": "bytes32",
          "name": "destinationHash",
          "type": "bytes32"
        },
        {
          "indexed": true,
          "internalType": "bytes32",
          "name": "messageHash",
          "type": "bytes32"
        },
        {
          "indexed": false,
          "internalType": "bool",
          "name": "success",
          "type": "bool"
        }
      ],
      "name": "XcmMessageSent",
      "type": "event"
    },
    {
      "anonymous": false,
      "inputs": [
        {
          "indexed": true,
          "internalType": "bytes32",
          "name": "messageHash",
          "type": "bytes32"
        },
        {
          "indexed": false,
          "internalType": "uint64",
          "name": "refTime",
          "type": "uint64"
        },
        {
          "indexed": false,
          "internalType": "uint64",
          "name": "proofSize",
          "type": "uint64"
        },
        {
          "indexed": false,
          "internalType": "bool",
          "name": "precompileUsed",
          "type": "bool"
        }
      ],
      "name": "XcmMessageWeighed",
      "type": "event"
    },
    {
      "inputs": [
        {
          "internalType": "bytes",
          "name": "message",
          "type": "bytes"
        }
      ],
      "name": "executeXcmMessage",
      "outputs": [
        {
          "internalType": "uint64",
          "name": "refTime",
          "type": "uint64"
        },
        {
          "internalType": "uint64",
          "name": "proofSize",
          "type": "uint64"
        }
      ],
      "stateMutability": "nonpayable",
      "type": "function"
    },
    {
      "inputs": [],
      "name": "owner",
      "outputs": [
        {
          "internalType": "address",
          "name": "",
          "type": "address"
        }
      ],
      "stateMutability": "view",
      "type": "function"
    },
    {
      "inputs": [],
      "name": "renounceOwnership",
      "outputs": [],
      "stateMutability": "nonpayable",
      "type": "function"
    },
    {
      "inputs": [
        {
          "internalType": "bytes",
          "name": "destination",
          "type": "bytes"
        },
        {
          "internalType": "bytes",
          "name": "message",
          "type": "bytes"
        }
      ],
      "name": "sendXcmMessage",
      "outputs": [],
      "stateMutability": "nonpayable",
      "type": "function"
    },
    {
      "inputs": [
        {
          "internalType": "address",
          "name": "newOwner",
          "type": "address"
        }
      ],
      "name": "transferOwnership",
      "outputs": [],
      "stateMutability": "nonpayable",
      "type": "function"
    },
    {
      "inputs": [
        {
          "internalType": "bytes",
          "name": "message",
          "type": "bytes"
        }
      ],
      "name": "weighXcmMessage",
      "outputs": [
        {
          "internalType": "uint64",
          "name": "refTime",
          "type": "uint64"
        },
        {
          "internalType": "uint64",
          "name": "proofSize",
          "type": "uint64"
        },
        {
          "internalType": "bool",
          "name": "success",
          "type": "bool"
        }
      ],
      "stateMutability": "nonpayable",
      "type": "function"
    }
  ],
  "bytecode": "0x608060405234801561000f575f5ffd5b50604051611417380380611417833981810160405281019061003191906101d7565b805f73ffffffffffffffffffffffffffffffffffffffff168173ffffffffffffffffffffffffffffffffffffffff16036100a2575f6040517f1e4fbdf70000000000000000000000000000000000000000000000000000000081526004016100999190610211565b60405180910390fd5b6100b1816100b860201b60201c565b505061022a565b5f5f5f9054906101000a900473ffffffffffffffffffffffffffffffffffffffff169050815f5f6101000a81548173ffffffffffffffffffffffffffffffffffffffff021916908373ffffffffffffffffffffffffffffffffffffffff1602179055508173ffffffffffffffffffffffffffffffffffffffff168173ffffffffffffffffffffffffffffffffffffffff167f8be0079c531659141344cd1fd0a4f28419497f9722a3daafe3b4186f6b6457e060405160405180910390a35050565b5f5ffd5b5f73ffffffffffffffffffffffffffffffffffffffff82169050919050565b5f6101a68261017d565b9050919050565b6101b68161019c565b81146101c0575f5ffd5b50565b5f815190506101d1816101ad565b92915050565b5f602082840312156101ec576101eb610179565b5b5f6101f9848285016101c3565b91505092915050565b61020b8161019c565b82525050565b5f6020820190506102245f830184610202565b92915050565b6111e0806102375f395ff3fe608060405234801561000f575f5ffd5b5060043610610060575f3560e01c8063166320a414610064578063316ef3ea14610080578063715018a6146100b25780638a8d253f146100bc5780638da5cb5b146100ed578063f2fde38b1461010b575b5f5ffd5b61007e60048036038101906100799190610ace565b610127565b005b61009a60048036038101906100959190610b4c565b6102e1565b6040516100a993929190610bd3565b60405180910390f35b6100ba6103a6565b005b6100d660048036038101906100d19190610b4c565b6103b9565b6040516100e4929190610c08565b60405180910390f35b6100f5610509565b6040516101029190610c6e565b60405180910390f35b61012560048036038101906101209190610cb1565b610530565b005b61012f6105b4565b5f84848080601f0160208091040260200160405190810160405280939291908181526020018383808284375f81840152601f19601f8201169050808301925050505050505090505f83838080601f0160208091040260200160405190810160405280939291908181526020018383808284375f81840152601f19601f8201169050808301925050505050505090505f825111610200576040517f08c379a00000000000000000000000000000000000000000000000000000000081526004016101f790610d36565b60405180910390fd5b5f815111610243576040517f08c379a000000000000000000000000000000000000000000000000000000000815260040161023a90610d9e565b60405180910390fd5b5f61024e838361063b565b905080610290576040517f08c379a000000000000000000000000000000000000000000000000000000000815260040161028790610e06565b60405180910390fd5b818051906020012083805190602001207fae18665198f18499977cebfb0aaea625436c755528b8958a995be9af1ca815ae60016040516102d09190610e24565b60405180910390a350505050505050565b5f5f5f6102ec6105b4565b5f85858080601f0160208091040260200160405190810160405280939291908181526020018383808284375f81840152601f19601f8201169050808301925050505050505090505f5f61033e83610725565b9150915082805190602001207f48f1da4cbed610f130ee25e2c5db42911c2e13e77ac32e508312eb89d6f1c5d3835f015184602001518460405161038493929190610bd3565b60405180910390a2815f01518260200151829550955095505050509250925092565b6103ae6105b4565b6103b75f61087e565b565b5f5f6103c36105b4565b5f84848080601f0160208091040260200160405190810160405280939291908181526020018383808284375f81840152601f19601f8201169050808301925050505050505090505f5f61041583610725565b9150915080610459576040517f08c379a000000000000000000000000000000000000000000000000000000000815260040161045090610e87565b60405180910390fd5b5f610464848461093f565b9050806104a6576040517f08c379a000000000000000000000000000000000000000000000000000000000815260040161049d90610eef565b60405180910390fd5b83805190602001207fed3a2663f485070311cbe58c49de811ff9c64cce4412902ae528f469232f57fe845f0151856020015160016040516104e993929190610bd3565b60405180910390a2825f0151836020015195509550505050509250929050565b5f5f5f9054906101000a900473ffffffffffffffffffffffffffffffffffffffff16905090565b6105386105b4565b5f73ffffffffffffffffffffffffffffffffffffffff168173ffffffffffffffffffffffffffffffffffffffff16036105a8575f6040517f1e4fbdf700000000000000000000000000000000000000000000000000000000815260040161059f9190610c6e565b60405180910390fd5b6105b18161087e565b50565b6105bc610a29565b73ffffffffffffffffffffffffffffffffffffffff166105da610509565b73ffffffffffffffffffffffffffffffffffffffff1614610639576105fd610a29565b6040517f118cdaa70000000000000000000000000000000000000000000000000000000081526004016106309190610c6e565b60405180910390fd5b565b5f620a000073ffffffffffffffffffffffffffffffffffffffff16637f0a3bf960e01b8484604051602401610671929190610f7d565b604051602081830303815290604052907bffffffffffffffffffffffffffffffffffffffffffffffffffffffff19166020820180517bffffffffffffffffffffffffffffffffffffffffffffffffffffffff83818316178352505050506040516106db9190610fec565b5f604051808303815f865af19150503d805f8114610714576040519150601f19603f3d011682016040523d82523d5f602084013e610719565b606091505b50508091505092915050565b61072d610a30565b5f6060620a000073ffffffffffffffffffffffffffffffffffffffff166347400c2360e01b856040516024016107639190611002565b604051602081830303815290604052907bffffffffffffffffffffffffffffffffffffffffffffffffffffffff19166020820180517bffffffffffffffffffffffffffffffffffffffffffffffffffffffff83818316178352505050506040516107cd9190610fec565b5f60405180830381855afa9150503d805f8114610805576040519150601f19603f3d011682016040523d82523d5f602084013e61080a565b606091505b508092508193505050811580610821575060408151105b1561085a5760405180604001604052805f67ffffffffffffffff1681526020015f67ffffffffffffffff168152505f9250925050610879565b8080602001905181019061086e9190611115565b925082600192509250505b915091565b5f5f5f9054906101000a900473ffffffffffffffffffffffffffffffffffffffff169050815f5f6101000a81548173ffffffffffffffffffffffffffffffffffffffff021916908373ffffffffffffffffffffffffffffffffffffffff1602179055508173ffffffffffffffffffffffffffffffffffffffff168173ffffffffffffffffffffffffffffffffffffffff167f8be0079c531659141344cd1fd0a4f28419497f9722a3daafe3b4186f6b6457e060405160405180910390a35050565b5f620a000073ffffffffffffffffffffffffffffffffffffffff1663d3b7e04d60e01b848460405160240161097592919061117c565b604051602081830303815290604052907bffffffffffffffffffffffffffffffffffffffffffffffffffffffff19166020820180517bffffffffffffffffffffffffffffffffffffffffffffffffffffffff83818316178352505050506040516109df9190610fec565b5f604051808303815f865af19150503d805f8114610a18576040519150601f19603f3d011682016040523d82523d5f602084013e610a1d565b606091505b50508091505092915050565b5f33905090565b60405180604001604052805f67ffffffffffffffff1681526020015f67ffffffffffffffff1681525090565b5f604051905090565b5f5ffd5b5f5ffd5b5f5ffd5b5f5ffd5b5f5ffd5b5f5f83601f840112610a8e57610a8d610a6d565b5b8235905067ffffffffffffffff811115610aab57610aaa610a71565b5b602083019150836001820283011115610ac757610ac6610a75565b5b9250929050565b5f5f5f5f60408587031215610ae657610ae5610a65565b5b5f85013567ffffffffffffffff811115610b0357610b02610a69565b5b610b0f87828801610a79565b9450945050602085013567ffffffffffffffff811115610b3257610b31610a69565b5b610b3e87828801610a79565b925092505092959194509250565b5f5f60208385031215610b6257610b61610a65565b5b5f83013567ffffffffffffffff811115610b7f57610b7e610a69565b5b610b8b85828601610a79565b92509250509250929050565b5f67ffffffffffffffff82169050919050565b610bb381610b97565b82525050565b5f8115159050919050565b610bcd81610bb9565b82525050565b5f606082019050610be65f830186610baa565b610bf36020830185610baa565b610c006040830184610bc4565b949350505050565b5f604082019050610c1b5f830185610baa565b610c286020830184610baa565b9392505050565b5f73ffffffffffffffffffffffffffffffffffffffff82169050919050565b5f610c5882610c2f565b9050919050565b610c6881610c4e565b82525050565b5f602082019050610c815f830184610c5f565b92915050565b610c9081610c4e565b8114610c9a575f5ffd5b50565b5f81359050610cab81610c87565b92915050565b5f60208284031215610cc657610cc5610a65565b5b5f610cd384828501610c9d565b91505092915050565b5f82825260208201905092915050565b7f456d7074792064657374696e6174696f6e0000000000000000000000000000005f82015250565b5f610d20601183610cdc565b9150610d2b82610cec565b602082019050919050565b5f6020820190508181035f830152610d4d81610d14565b9050919050565b7f456d707479206d657373616765000000000000000000000000000000000000005f82015250565b5f610d88600d83610cdc565b9150610d9382610d54565b602082019050919050565b5f6020820190508181035f830152610db581610d7c565b9050919050565b7f58434d2073656e64206661696c656400000000000000000000000000000000005f82015250565b5f610df0600f83610cdc565b9150610dfb82610dbc565b602082019050919050565b5f6020820190508181035f830152610e1d81610de4565b9050919050565b5f602082019050610e375f830184610bc4565b92915050565b7f58434d2077656967684d657373616765206661696c65640000000000000000005f82015250565b5f610e71601783610cdc565b9150610e7c82610e3d565b602082019050919050565b5f6020820190508181035f830152610e9e81610e65565b9050919050565b7f58434d2065786563757465206661696c656400000000000000000000000000005f82015250565b5f610ed9601283610cdc565b9150610ee482610ea5565b602082019050919050565b5f6020820190508181035f830152610f0681610ecd565b9050919050565b5f81519050919050565b5f82825260208201905092915050565b8281835e5f83830152505050565b5f601f19601f8301169050919050565b5f610f4f82610f0d565b610f598185610f17565b9350610f69818560208601610f27565b610f7281610f35565b840191505092915050565b5f6040820190508181035f830152610f958185610f45565b90508181036020830152610fa98184610f45565b90509392505050565b5f81905092915050565b5f610fc682610f0d565b610fd08185610fb2565b9350610fe0818560208601610f27565b80840191505092915050565b5f610ff78284610fbc565b915081905092915050565b5f6020820190508181035f83015261101a8184610f45565b905092915050565b5f5ffd5b7f4e487b71000000000000000000000000000000000000000000000000000000005f52604160045260245ffd5b61105c82610f35565b810181811067ffffffffffffffff8211171561107b5761107a611026565b5b80604052505050565b5f61108d610a5c565b90506110998282611053565b919050565b6110a781610b97565b81146110b1575f5ffd5b50565b5f815190506110c28161109e565b92915050565b5f604082840312156110dd576110dc611022565b5b6110e76040611084565b90505f6110f6848285016110b4565b5f830152506020611109848285016110b4565b60208301525092915050565b5f6040828403121561112a57611129610a65565b5b5f611137848285016110c8565b91505092915050565b61114981610b97565b82525050565b604082015f8201516111635f850182611140565b5060208201516111766020850182611140565b50505050565b5f6060820190508181035f8301526111948185610f45565b90506111a3602083018461114f565b939250505056fea2646970667358221220456ebebbf8e25ca4049958c33d2a36194f6059fc4fd0df7df3735c87e96d15c464736f6c634300081c0033",
  "linkReferences": {},
  "deployedLinkReferences": {},
  "immutableReferences": {},
  "inputSourceName": "project/contracts/PVM/XcmGateway.sol",
  "buildInfoId": "solc-0_8_28-39f3080109f668b56a03df84e8da5ea1d5ef78c8"
}